:0CF1000000000000FFFF0000FFFF000007
:02F10C00000001
:10F10E00314000243C4002200D433E401200B0121C
:10F11E0014F33C4000203D400CF10D9C04243E4075
:10F12E000200B012E0F2B01240F30C43B012A4F29F
:10F13E00344000F1354000F126430D3C344000F1DF
:10F14E00354000F12643073C344000F1354000F1D4
:10F15E003640FEFF003C0594052427440456A712B2
:10F16E001040F4FF3041304130413C405CF33C9064
:10F17E005CF307243D4000000D9303243C405CF3F8
:10F18E008D1230413D405CF33D805CF30D110C4D12
:10F19E005C034D180C110D5C0D110D9307243E40B0
:10F1AE0000000E9303243C405CF38E1230411A157E
:10F1BE00C293022017203A400AF13A8008F10A1150
:10F1CE003A53394008F11C4204200C9A0D28B01213
:10F1DE0078F13D4000000D9303243C4000F18D1268
:10F1EE00D2430220191730411C53824C04200C5C70
:10F1FE000C592C4C8C12E73F3E4000000E93052418
:10F20E003D4006203C4000F18E12B01292F130418A
:10F21E00E2C31C0282439003B2F0CFFF8003B2D050
:10F22E0020008003001392C38003B2F0CFFF80034F
:10F23E00E2B300020220D2E3020200130C151C42BC
:10F24E00AE032C93012003430C170013B240805AD7
:10F25E00CC013041D2D30402D2C302023041E2C308
:10F26E000402E2D30602E2D30202C2431C02E2D33C
:10F27E001802E2D31A023041B2D000028003B2D09B
:10F28E0020008003B24099199203B2D0100082037D
:10F29E00A2D380033041B240805ACC01D2D30402B3
:10F2AE00D2C30202B0126CF2B2D000028003B2D00E
:10F2BE0020008003B24099199203B2D0100082034D
:10F2CE00A2D3800392C3300132D2034303430343DC
:10F2DE00FD3F0D9C09280F4C0E5C0E9F0C24EF4D2C
:10F2EE0000001F531D53F93F0F4D0F5E0C9FF32F60
:10F2FE003E533E93012030410B4C0B5E0F4D0F5E83
:10F30E00EB4F0000F53F0F4C0E5C0F9E012030417D
:10F31E00CF4D00001F53F93F30410A153A4004F11A
:10F32E002C4A3C9302200A1730418C123A50FEFFB1
:10F33E00F73FB01206F2B01228F3B0124AF1B01233
:0EF34E003EF13041B01256F1B012BCF1304128
:02FFE6001EF209
:02FFF6004AF2CD
:02FFF80034F2E1
:02FFFE000EF102
:040000030000F10EFA
:00000001FF
