:0C44000000000000FFFF0000FFFF0000B4
:02440C000000AE
:10440E00314000443C4002240D433E401200B012A5
:10441E00B6463C4000243D400C440D9C04243E40D6
:10442E000200B0128246B012E2460C43B01226468B
:10443E00344000443540004426430D3C3440004493
:10444E00354000442643073C344000443540004488
:10445E003640FEFF003C0594052427440456A7125F
:06446E001040F4FF304194
:10447400304130413C40FE463C90FE4607243D40DE
:1044840000000D9303243C40FE468D1230413D4014
:10449400FE463D80FE460D110C4D5C034D180C117B
:1044A4000D5C0D110D9307243E4000000E93032470
:1044B4003C40FE468E1230411A15C2930224172046
:1044C4003A400A443A8008440A113A5339400844AD
:1044D4001C4204240C9A0D28B01278443D4000007C
:1044E4000D9303243C4000448D12D2430224191737
:1044F40030411C53824C04240C5C0C592C4C8C12FF
:10450400E73F3E4000000E9305243D4006243C4016
:1045140000448E12B01292443041E2C31C02824322
:104524009003B2F0CFFF8003B2D0200080030013C9
:104534001D1592C38003B2F0CFFF8003E2B31802CB
:104544000324E2B300020D24E2B318020820E2B30C
:1045540000020524F2F07F002302E2D318021C17A4
:104564000013F2D080FF2302E2C318021C4254035A
:104574003D4084030D9C0A28B25064005403B2D019
:1045840010004003B2D0E0004403DE3F82435403F2
:10459400B2F0CFFF4003B2F01FFF4403A2C24403B2
:1045A400D33F0C151C42AE032C93012003430C177C
:1045B4000013B240805A5C013041F2D080FF2502E2
:1045C400E2D20402E2D20A02F2F07F002302304176
:1045D400E2C30402E2D30602E2D30202C2431C0293
:1045E400E2D31802E2D31A023041B2D000028003AF
:1045F400B240CF079203B2D010008203A2D380034B
:104604003041B2D000024003B2D010004003B240A7
:10461400E7035203B240F4015403B2D0E000440370
:104624003041B240805A5C01F2D080FF2502E2D2D0
:104634000402E2D20A02F2F07F002302B012D4454F
:10464400B2D000028003B240CF079203B2D0100070
:104654008203A2D38003B2D000024003B2D0100080
:104664004003B240E7035203B240F4015403B2D012
:10467400E000440332D2034303430343FD3F0D9C54
:1046840009280F4C0E5C0E9F0C24EF4D00001F53A5
:104694001D53F93F0F4D0F5E0C9FF32F3E533E9376
:1046A400012030410B4C0B5E0F4D0F5EEB4F0000B1
:1046B400F53F0F4C0E5C0F9E01203041CF4D0000A2
:1046C4001F53F93F30410A153A4004442C4A3C93A5
:1046D40002200A1730418C123A50FEFFF73FB01205
:1046E4000645B012CA46B0124A44B0123E443041A4
:0A46F400B0125644B012BC4430412D
:02FFDE001E45BE
:02FFE000A64534
:02FFE2003445A4
:02FFFE000E44AF
:040000030000440EA7
:00000001FF
