:0CF8000000000000FFFF0000FFFF000000
:10F80C00314000033C4002020D433E401200B01256
:10F81C0096FB3C4000023D40E2FB0D9C04243E4024
:10F82C000200B0125EFBB012C6FB0C43B0124CFAD5
:10F83C00344000F8354000F82643304068F8344036
:10F84C0000F8354000F82643304068F8344000F8A2
:10F85C00354000F83640FEFF304068F8059405242A
:10F86C0027440456A7121040F4FF30413041304178
:10F87C003C40E2FB3C90E2FB07243D4000000D9332
:10F88C0003243C40E2FB8D1230410A123A40E2FB69
:10F89C003A80E2FB0A110C4AB012AAFA0C5A0D4C2F
:10F8AC000D110D9307243E4000000E9303243C40A1
:10F8BC00E2FB8E123A4130410A120912C293020243
:10F8CC0017203A400AF83A8008F80A113A5339409E
:10F8DC0008F81C4204020C9A0D28B0127CF83D402A
:10F8EC0000000D9303243C4000F88D12D243020219
:10F8FC003040A4FA1C53824C04020C5C0C592C4C66
:10F90C008C123040DEF83E4000000E9305243D4042
:10F91C0006023C4000F88E12B01296F83041E2C25A
:10F92C00230082439001B2F0CFFF8001B2D02000BF
:10F93C00800100130D120C1292C38001B2F0CFFFA4
:10F94C008001E2B224000324E2B220000E24E2B2D1
:10F95C0024000820E2B220000524F2F0BFFF2100B1
:10F96C00E2D224003C413D410013F2D04000210082
:10F97C00E2C224001C4274013D4084030D9C082803
:10F98C00B25064007401B2D01000600130405AF9DA
:10F99C0082437401B2F0CFFF6001D2C3210030402A
:10F9AC005AF90C121C421E012C93012003433C41BA
:10F9BC00001392C36001D2D3210000130C121C421D
:10F9CC002E012C930220D2C321003C410013B240E3
:10F9DC00805A20013041F2D040002200D2D32200C4
:10F9EC00F2F0BFFF2100D2C321003041E2C222005D
:10F9FC00C2432300E2D22400E2D225003041B2D02F
:10FA0C0000028001B240CF079201B2D010008201F7
:10FA1C00A2D380013041B2D000026001B2D01000FC
:10FA2C006001B240E7037201B240F3017401B2D03D
:10FA3C0010006201B2D010006401A2D36001304109
:10FA4C00B240805A2001F2D040002200D2D32200D2
:10FA5C00F2F0BFFF2100D2C32100E2C22200C24358
:10FA6C002300E2D22400E2D22500B2D000028001B1
:10FA7C00B240CF079201B2D010008201A2D3800114
:10FA8C00B01222FA32D203430343304092FA34418B
:10FA9C00354136413741384139413A41304112C341
:10FAAC000C1012C30C1012C30C1012C30C1012C386
:10FABC000C1012C30C1012C30C1012C30C1012C376
:10FACC000C1012C30C1012C30C1012C30C1012C366
:10FADC000C1012C30C1012C30C1030413D5312C346
:10FAEC000C100D93FB23304112C30D100C1012C3DC
:10FAFC000D100C1012C30D100C1012C30D100C10A5
:10FB0C0012C30D100C1012C30D100C1012C30D10DB
:10FB1C000C1012C30D100C1012C30D100C1012C3CC
:10FB2C000D100C1012C30D100C1012C30D100C1074
:10FB3C0012C30D100C1012C30D100C1012C30D10AB
:10FB4C000C1030413E5312C30D100C100E93FA23BF
:10FB5C0030410D9C0A280F4C0E5C0E9F0D24EF4D6E
:10FB6C0000001F531D53304066FB0F4D0F5E0C9F62
:10FB7C00F22F3E533E93012030410B4C0B5E0F4D48
:10FB8C000F5EEB4F000030407EFB0F4C0E5C0F9E67
:10FB9C0001203041CF4D00001F5330409AFB3041C3
:10FBAC000A123A4004F82C4A3C9302203A41304164
:10FBBC008C123A50FEFF3040B2FBB01212F9B01268
:10FBCC00ACFBB0124AF8B0123CF83041B01258F805
:06FBDC00B012C4F8304134
:02FBE200000021
:02FFE4002AF9F8
:02FFF000C8F94E
:02FFF200BEF956
:02FFF800AEF960
:02FFFA0040F9CC
:02FFFE000CF8FD
:040000030000F80CF5
:00000001FF
