:0C44000000000000FFFF0000FFFF0000B4
:02440C000000AE
:10440E00314000443C4002240D433E401200B012A5
:10441E00B8463C4000243D400C440D9C04243E40D4
:10442E000200B0128446B012E4460C43B01242466B
:10443E00344000443540004426430D3C3440004493
:10444E00354000442643073C344000443540004488
:10445E003640FEFF003C0594052427440456A7125F
:06446E001040F4FF304194
:10447400304130413C4000473C90004707243D40D8
:1044840000000D9303243C4000478D1230413D4011
:1044940000473D8000470D110C4D5C034D180C1175
:1044A4000D5C0D110D9307243E4000000E93032470
:1044B4003C4000478E1230411A15C2930224172043
:1044C4003A400A443A8008440A113A5339400844AD
:1044D4001C4204240C9A0D28B01278443D4000007C
:1044E4000D9303243C4000448D12D2430224191737
:1044F40030411C53824C04240C5C0C592C4C8C12FF
:10450400E73F3E4000000E9305243D4006243C4016
:1045140000448E12B01292443041E2C31C02824322
:104524009003B2F0CFFF8003B2D0200080030013C9
:104534001D1592C38003B2F0CFFF8003E2B31802CB
:104544000324E2B300020C24E2B318020720E2B30E
:1045540000020424D2C30202E2D318021C1700137F
:10456400D2D30202E2C318021C4254033D40840326
:104574000D9C0728B25064005403B2D010004003CD
:10458400E33F82435403B2F0CFFF4003F2F07F00D5
:104594002302DA3F0C151C42AE032C930120034383
:1045A4000C17001392C34003F2D080FF23020013C0
:1045B4000C151C426E032C930320F2F07F0023029F
:1045C4000C170013B240805A5C013041D2D304026C
:1045D400F2D080FF2502D2C30202F2F07F00230250
:1045E4003041E2C30402E2D30602E2D30202C24330
:1045F4001C02E2D31802E2D31A023041B2D0000204
:104604008003B240CF079203B2D010008203A2D33A
:1046140080033041B2D000024003B2D01000400306
:10462400B240E7035203B240F3015403B2D0100086
:104634004203B2D010004403A2D340033041B2403D
:10464400805A5C01D2D30402F2D080FF2502D2C387
:104654000202F2F07F002302B012E645B2D000025B
:104664008003B240CF079203B2D010008203A2D3DA
:104674008003B012184632D2034303430343FD3F81
:104684000D9C09280F4C0E5C0E9F0C24EF4D00006E
:104694001F531D53F93F0F4D0F5E0C9FF32F3E53D5
:1046A4003E93012030410B4C0B5E0F4D0F5EEB4FE0
:1046B4000000F53F0F4C0E5C0F9E01203041CF4DA2
:1046C40000001F53F93F30410A153A4004442C4A74
:1046D4003C9302200A1730418C123A50FEFFF73FF8
:1046E400B0120645B012CC46B0124A44B0123E4451
:0C46F4003041B0125644B012BC443041BA
:02FFDE001E45BE
:02FFE000984542
:02FFE2003445A4
:02FFE800B4451E
:02FFEA00A84528
:02FFFE000E44AF
:040000030000440EA7
:00000001FF
