:0CF8000000000000FFFF0000FFFF000000
:10F80C00314000033C4002020D433E401200B01256
:10F81C0092FB3C4000023D40DEFB0D9C04243E402C
:10F82C000200B0125AFBB012C2FB0C43B0122EFAFB
:10F83C00344000F8354000F82643304068F8344036
:10F84C0000F8354000F82643304068F8344000F8A2
:10F85C00354000F83640FEFF304068F8059405242A
:10F86C0027440456A7121040F4FF30413041304178
:10F87C003C40DEFB3C90DEFB07243D4000000D933A
:10F88C0003243C40DEFB8D1230410A123A40DEFB71
:10F89C003A80DEFB0A110C4AB012A6FA0C5A0D4C37
:10F8AC000D110D9307243E4000000E9303243C40A1
:10F8BC00DEFB8E123A4130410A120912C293020247
:10F8CC0017203A400AF83A8008F80A113A5339409E
:10F8DC0008F81C4204020C9A0D28B0127CF83D402A
:10F8EC0000000D9303243C4000F88D12D243020219
:10F8FC003040A0FA1C53824C04020C5C0C592C4C6A
:10F90C008C123040DEF83E4000000E9305243D4042
:10F91C0006023C4000F88E12B01296F83041E2C25A
:10F92C00230082439001B2F0CFFF8001B2D02000BF
:10F93C00800100130D120C1292C38001B2F0CFFFA4
:10F94C008001E2B224000324E2B220000D24E2B2D2
:10F95C0024000720E2B220000424D2C32100E2D20A
:10F96C0024003C413D410013D2D32100E2C22400CB
:10F97C001C4274013D4084030D9C0B28B250640062
:10F98C007401B2D010006001B2D0E00064013040CC
:10F99C005AF982437401B2F0CFFF6001B2F01FFF3D
:10F9AC006401A2C2640130405AF90C121C421E01BF
:10F9BC002C93012003433C410013B240805A200198
:10F9CC003041D2D32200F2D040002200F2D04000CD
:10F9DC002600D2C321003041E2C22200C2432300E0
:10F9EC00E2D22400E2D225003041B2D000028001E4
:10F9FC00B240CF079201B2D010008201A2D3800195
:10FA0C003041B2D000026001B2D010006001B240AF
:10FA1C00E7037201B240F4017401B2D0E00064015A
:10FA2C003041B240805A2001D2D32200F2D04000A3
:10FA3C002200F2D040002600D2C32100E2C22200F4
:10FA4C00C2432300E2D22400E2D22500B2D000024D
:10FA5C008001B240CF079201B2D010008201A2D334
:10FA6C008001B2D000026001B2D010006001B2403F
:10FA7C00E7037201B240F4017401B2D0E0006401FA
:10FA8C0032D20343034330408EFA34413541364180
:10FA9C003741384139413A41304112C30C1012C33D
:10FAAC000C1012C30C1012C30C1012C30C1012C386
:10FABC000C1012C30C1012C30C1012C30C1012C376
:10FACC000C1012C30C1012C30C1012C30C1012C366
:10FADC000C1012C30C1030413D5312C30C100D937B
:10FAEC00FB23304112C30D100C1012C30D100C105F
:10FAFC0012C30D100C1012C30D100C1012C30D10EC
:10FB0C000C1012C30D100C1012C30D100C1012C3DC
:10FB1C000D100C1012C30D100C1012C30D100C1084
:10FB2C0012C30D100C1012C30D100C1012C30D10BB
:10FB3C000C1012C30D100C1012C30D100C10304110
:10FB4C003E5312C30D100C100E93FA2330410D9C32
:10FB5C000A280F4C0E5C0E9F0D24EF4D00001F5316
:10FB6C001D53304062FB0F4D0F5E0C9FF22F3E5326
:10FB7C003E93012030410B4C0B5E0F4D0F5EEB4F53
:10FB8C00000030407AFB0F4C0E5C0F9E0120304180
:10FB9C00CF4D00001F53304096FB30410A123A40C3
:10FBAC0004F82C4A3C9302203A4130418C123A50D2
:10FBBC00FEFF3040AEFBB01212F9B012A8FBB0122F
:10FBCC004AF8B0123CF83041B01258F8B012C4F8F0
:02FBDC003041B6
:02FBDE00000025
:02FFE4002AF9F8
:02FFF800B6F958
:02FFFA0040F9CC
:02FFFE000CF8FD
:040000030000F80CF5
:00000001FF
